:1000000000800120E104000021DA0000F17000000E
:1000100000000000000000000000000000000000E0
:10002000000000000000000000000000F9E40000F3
:10003000000000000000000071690000298C000031
:100040004105000045050000490500004D05000080
:1000500029050000290500002905000029050000E8
:100060005105000055050000590500002905000054
:100070005D05000029050000290500002905000094
:1000800029050000290500002905000029050000B8
:1000900029050000290500002905000029050000A8
:1000A0002905000029050000290500002905000098
:1000B0002905000061050000290500002905000050
:10040000FFFFFFFFFFFFFFFFFFFFFFFFFEFFFFFFFD
:1004200010B5064C2378002B07D1054B002B02D0CA
:10043000044800E000BF0123237010BD9006002097
:1004400000000000740B0100044B10B5002B03D01A
:100450000349044800E000BF10BDC0460000000092
:1004600094060020740B0100164B002B00D1144B96
:100470009D46402292029A1A924600218B460F46D0
:100480001348144A121A0DF075FD0F4B002B00D0C3
:1004900098470E4B002B00D0984700200021040005
:1004A0000D000D48002802D00C480DF061FE0DF043
:1004B000EDFC200029000BF09DFA0DF0D7FCC046A2
:1004C0000000080000800120000000000000000083
:1004D00090060020884A002071E1000081E10000C0
:1004E00072B60A480A4901600A6882F30888094816
:1004F00080470949094A0A4B9B1A03DD043BC85847
:10050000D050FBDC62B607488047000008ED00E0F1
:100510000000000019DE0000B80B0100C000002040
:1005200090060020690400000E4800470E4800476E
:100530000E4800470E4800470E4800470E48004747
:100540000E4800470E4800470E4800470E48004737
:100550000E4800470E4800470E4800470E48004727
:100560000E4800472905000021DA0000F170000064
:10057000F9E4000071690000298C000029050000E1
:1005800029050000290500002905000041CE0000D2
:1005900059CE0000E9CD0000F5D0000001CE0000EA
:1005A00002B4714649084900095649008E4402BC0C
:1005B0007047C04602B4714649084900095C4900C9
:1005C0008E4402BC7047C04603B4714649084000DF
:1005D0004900095A49008E4403BC70470022430871
:1005E0008B4274D303098B425FD3030A8B4244D3FB
:1005F000030B8B4228D3030C8B420DD3FF2209023D
:1006000012BA030C8B4202D31212090265D0030BFB
:100610008B4219D300E0090AC30B8B4201D3CB03F1
:10062000C01A5241830B8B4201D38B03C01A524133
:10063000430B8B4201D34B03C01A5241030B8B4235
:1006400001D30B03C01A5241C30A8B4201D3CB0220
:10065000C01A5241830A8B4201D38B02C01A524105
:10066000430A8B4201D34B02C01A5241030A8B4208
:1006700001D30B02C01A5241CDD2C3098B4201D320
:10068000CB01C01A524183098B4201D38B01C01A9E
:10069000524143098B4201D34B01C01A5241030915
:1006A0008B4201D30B01C01A5241C3088B4201D3C4
:1006B000CB00C01A524183088B4201D38B00C01A71
:1006C000524143088B4201D34B00C01A5241411A98
:1006D00000D20146524110467047FFE701B50020A5
:1006E00000F0F0F802BDC0460029F7D076E7704769
:1006F00003460B437FD4002243088B4274D3030983
:100700008B425FD3030A8B4244D3030B8B4228D323
:10071000030C8B420DD3FF22090212BA030C8B4249
:1007200002D31212090265D0030B8B4219D300E0E9
:10073000090AC30B8B4201D3CB03C01A5241830B6E
:100740008B4201D38B03C01A5241430B8B4201D31E
:100750004B03C01A5241030B8B4201D30B03C01A47
:100760005241C30A8B4201D3CB02C01A5241830AC1
:100770008B4201D38B02C01A5241430A8B4201D3F0
:100780004B02C01A5241030A8B4201D30B02C01A1A
:100790005241CDD2C3098B4201D3CB01C01A524181
:1007A00083098B4201D38B01C01A524143098B420A
:1007B00001D34B01C01A524103098B4201D30B01F3
:1007C000C01A5241C3088B4201D3CB00C01A524118
:1007D00083088B4201D38B00C01A524143088B42DD
:1007E00001D34B00C01A5241411A00D20146524176
:1007F000104670475DE0CA0F00D04942031000D395
:100800004042534000229C4603098B422DD3030AE9
:100810008B4212D3FC22890112BA030A8B420CD3F9
:10082000890192118B4208D3890192118B4204D322
:1008300089013AD0921100E08909C3098B4201D3A2
:10084000CB01C01A524183098B4201D38B01C01ADC
:10085000524143098B4201D34B01C01A5241030953
:100860008B4201D30B01C01A5241C3088B4201D302
:10087000CB00C01A524183088B4201D38B00C01AAF
:100880005241D9D243088B4201D34B00C01A524186
:10089000411A00D20146634652415B10104601D313
:1008A0004042002B00D54942704763465B1000D39D
:1008B000404201B5002000F005F802BD0029F8D043
:1008C00016E770477047C0468446081C6146FFE73C
:1008D0001FB500F071FC002801D40021C8421FBDE3
:1008E00010B500F0F3FB4042013010BD10B500F030
:1008F00063FC002801DB002010BD012010BDC046B4
:1009000010B500F059FC002801DD002010BD0120C9
:1009100010BDC04610B500F001FC002801DC00202D
:1009200010BD012010BDC04610B500F0F7FB002837
:1009300001DA002010BD012010BDC046002B11D1EE
:10094000002A0FD1002900D1002802D00021C9437C
:10095000081C07B4024802A14018029003BDC0461B
:1009600065FFFFFF03B4684601B5029800F048F840
:10097000019B9E4602B00CBC7047C046F0B5CE4607
:10098000474615042D0C2E0080B50704140C3F0CAF
:100990009946030C7E435D43674363437F19340CE0
:1009A000E4199C46A54203D980235B029846C444BF
:1009B0004B4643435143250C36046544360C24040E
:1009C000A4195B19591820000CBC90469946F0BD3B
:1009D0009E2110B5C905041CFFF7A6FF002803D10E
:1009E000201C00F0F3FE10BD9E21201CC90500F064
:1009F00047FD00F0EBFE80231B069C466044F2E7B7
:100A0000F0B557464E464546DE46E0B5040083B095
:100A10000D00924699468B4230D82DD0494650461B
:100A200000F09CFF29000600200000F097FF331A19
:100A30009846203B9B4633D45A4653469340424601
:100A40001F00534693401E00AF423AD8AF4200D138
:100A50007BE05B46A41BBD41002B00DA78E000225E
:100A600000230092019301235A46934001930123EE
:100A700042469340009328E08242CFD900220023CF
:100A8000009201930C9B002B01D01C605D600098CC
:100A9000019903B03CBC90469946A246AB46F0BDD6
:100AA000424620239B1A5246DA40414613004A46EA
:100AB0008A40170042461F43534693401E00AF42F0
:100AC000C4D900220023009201934346002BD9D0C1
:100AD000FB079C46614672080A437B0846460EE0C7
:100AE000AB4201D1A2420CD8A41A9D410120241985
:100AF0006D410021013E24184D41002E06D0AB422D
:100B0000EED9013E24196D41002EF8D100980199CB
:100B10005B4600196941002B25DB2B005A464446F1
:100B2000D3402A00E2401C005B461500002B2BDB63
:100B300026005F46BE40330026004746BE403200D6
:100B4000801A9941009001919CE7A342B9D880E7AF
:100B50004246202300219B1A00220091019201228B
:100B6000DA40019283E7424620239B1A2A00464638
:100B70009A402300F340444613432A00E2401C00FD
:100B80005B461500002BD3DA2023424626009B1A31
:100B9000DE402F00B4464646B74066463B0033432E
:100BA000CAE7C046F8B54C02640A4746A0464C0066
:100BB000C90FCE4689464146430246005B0A360EBF
:100BC000240E80B5C50F9C463200D800C900371BE3
:100BD0004D4560D0002F48DD002C00D17CE0FF2E79
:100BE00000D183E08023DB04194301231B2F07DCA2
:100BF0000B002022FB40D71BB9404A1E91410B43FA
:100C0000C31A5A0100D4A8E09B019C09200000F0FF
:100C100087FE05388440864200DDADE0861B220059
:100C200020200136F240861BB44023005C1EA34105
:100C3000002613435A0704D00F221A40042A00D07A
:100C400004335A0100D48BE00136F2B2FF2E00D1FA
:100C50008FE09B015B0A5B02D205580AED07104347
:100C600028430CBC90469946F8BD002F49D1FE247C
:100C7000771C3C4200D086E0002E00D0DEE0002849
:100C800000D1D1E00029E6D0431A5C0100D4F1E0A4
:100C90000B1A4D46CEE7002F4ADD002C3FD0FF2E29
:100CA00024D08023DB04194301231B2F07DC0B0016
:100CB0002022FB40D71BB9404A1E91410B431B1811
:100CC0005A014AD50136FF2E53D0012271491A40EC
:100CD0005B080B401343ADE7002943D0013F431AA3
:100CE000002F00D18DE7FF2E00D07EE76346002B5A
:100CF0003FD080236246DB0313435B025B0AFF2283
:100D0000A9E7A21B002E60D1002878D0013A002A62
:100D100000D1B5E0FF2C5DD14D46C446E6E7002981
:100D200020D0013F4318002FCAD0FF2EBCD1DDE7F1
:100D3000002F32D1FE24013634427AD1002A62D10A
:100D4000002800D1A0E0002900D184E74318002644
:100D50005A0102D5504A013613405A0700D06BE7BA
:100D6000DB089C46FF2EC1D063465B025B0AF2B2F1
:100D700071E7FF2200236EE7474B361A23405A07DC
:100D800000D059E7ECE7441A630161D4002C00D08D
:100D90003CE70025002200235DE7A21B002E28D19E
:100DA00000282DD0013A002A70D0FF2CB5D00123A5
:100DB0001B2A07DC03002026D340B21A9040421EB3
:100DC000904103435B1826007AE7FF2CA4D08023D0
:100DD000DB04184301231B2A07DC03002025D34032
:100DE000AA1A9040421E90410343CB1A4D4626005A
:100DF00007E7FF2C91D08023DB041843D7E74D464B
:100E0000C4462600AEE7002887D0002900D16DE750
:100E100080236246DB031A4200D167E742461A424A
:100E200000D063E7C44661E7002926D04D4643461B
:100E300011E7FF2E9DD043185B088EE700280AD1EA
:100E4000002900D068E780230025DB03FF2202E7AA
:100E50000C1A4D46DAE6002900D147E780236246A6
:100E6000DB031A4200D141E742461A4200D03DE777
:100E70004D4652E7002B00D06FE700250023EAE63D
:100E80000B1A4D462600BCE64346E4E6431826000E
:100E900016E7C046FFFFFF7DFFFFFFFBF0B54F46A3
:100EA0004646D64644024500C0B5640A0F1C2D0EC6
:100EB000C60F002D4FD0FF2D55D08023E400DB045A
:100EC0001C43002399469A467F3D7B0278005B0ACB
:100ED0009846000EFF0F002831D0FF2810D0802246
:100EE000DB00D2041A43904600217F382D1A4B466E
:100EF00032000B4371489B00C3587A40D2B29F46E0
:100F0000FF3D002B54D102234946194332000B0008
:100F10007A40033BD2B20C2B04D869499B00CB58D2
:100F20009F463A00002000246402C305600AD207ED
:100F3000184310431CBC90469946A246F0BD002BB6
:100F40002BD101234946320019438B005D497A4079
:100F5000CB58D2B29F46002C13D104239946033BB1
:100F600000259A46B1E7002C05D108239946063B97
:100F7000FF259A46A9E70C239946093BFF259A4687
:100F8000A3E7200000F0CCFC7625431F9C40002303
:100F90006D422D1A99469A4697E7180000F0C0FC5A
:100FA0004246431F9A402D189046763500219EE711
:100FB00003219CE717003A00FF200024B4E78024B7
:100FC0000022E403FF20AFE732005346022BF1D0AA
:100FD000032B6CD0012BA5D028007F30002846DDE4
:100FE000630704D00F232340042B00D004342301D3
:100FF00003D52800344B80301C40FE28DCDCA401E3
:10100000640AC0B290E78023DB031C4227D042462B
:101010001A4224D144461C436402640A3A00FF2069
:1010200082E73A0044468A46CFE7414663014C01D5
:10103000A34235D21B200021013D01271E0049009B
:101040005B00002E01DB9C4201D81B1B3943013899
:101050000028F3D11C00631E9C410C43BCE7802395
:10106000DB031C436402640A3200FF205CE70123B7
:10107000181A1B2800DD55E79E352300AC40C340FD
:10108000611E8C411C43630704D00F232340042BB3
:1010900000D00434630107D4A401640A002043E7AC
:1010A0001B1B1A200121C8E7012000243CE78023F4
:1010B000DB031C436402640AFF2035E794F400005C
:1010C000D4F4000008F50000FFFFFFF770B5420000
:1010D0004E024C0045026D0A120EC30F760A240E12
:1010E000C90FFF2A0FD0FF2C11D00120A24200D03F
:1010F00070BDB542FCD18B420DD0002AF8D128003A
:10110000451EA841F4E70120002DF1D1EBE70120B5
:10111000002EEDD1E9E70020EAE7C04670B54A00AD
:101120004E02450244006D0A240EC30F760A120EC9
:10113000C90FFF2C15D0FF2A0ED0002C15D1002A84
:1011400001D1002E1CD0002D14D08B4227D00220BC
:10115000013B1840013870BD002EEED00220404205
:10116000F9E7002DFAD1FF2A0ED0002A0ED1002E69
:10117000EDD00BE001230139994308000130EAE783
:101180000020002DE7D0E2E7002EE7D18B42DED130
:10119000944205DD0221581E08400138DBE7002497
:1011A000A24204DCB542D2D80020B542D3D2581EA8
:1011B000012398430130CEE730B5420044024D028E
:1011C000C30F4800640A120E6D0A000EC90FFF2AF1
:1011D00017D0FF2808D0002A17D1002808D1002DE9
:1011E00006D1002C23D007E0002DF4D002201EE011
:1011F000002C17D08B421FD00220013B1840013831
:1012000015E0002CF2D1FF2812D0002801D1002DCA
:10121000F2D08B42F0D182420FDD0221581E0840ED
:10122000013804E00123013999430800013030BD41
:10123000002DEED00220FAE70022904204DCAC42FE
:10124000DAD80020AC42F2D2581E01239843013074
:10125000EDE7C046F0B54F464646D6464402450047
:10126000C0B58846640A2D0EC70F002D49D0FF2D4A
:101270004FD08023E400DB041C43002399469A46A8
:101280007F3D434642465E02D20F5B00760A1B0E4C
:10129000904646D0FF2B12D080220020F600D204C8
:1012A0007F3B1643ED186A1C434694464A467B40F2
:1012B0000F2A00D974E0704992008A589746FF358A
:1012C000002E54D14A4602231A4391460220EAE7EF
:1012D0004346340082465246022A2AD0032A00D1CD
:1012E000C3E0012A00D082E0002200246402D2057B
:1012F000600ADB07104318431CBC90469946A2467F
:10130000F0BD002C27D104239946033B00259A46C3
:10131000B7E7002C19D108239946063BFF259A46CA
:10132000AFE7002E08D14A4601231A439146012017
:10133000B9E7FF220024D9E7300000F0F1FA431F9B
:101340002D1A9E40763D0020ADE70C239946093BBF
:10135000FF259A4695E7200000F0E2FA7625431F24
:101360009C4000236D422D1A99469A4689E74A46C9
:1013700003231A439146032095E73B00ABE7802403
:101380000023E403FF22B1E78023DB031C4245D0A6
:101390001E4243D133435C02640A4346FF22A5E761
:1013A000200C2404210C0F00320C3604360C774339
:1013B00051434643504389193A0C5218964203D977
:1013C00080214902884640443F0411043F0CC9195A
:1013D0008C01661EB441890E2143140C2418A4010B
:1013E0000C4322013CD50122610814400C436046A5
:1013F0007F3000281ADD620704D00F222240042A21
:1014000000D00434220103D560461C4A80301440C9
:10141000FE288EDCA401640AC2B267E78020C00304
:1014200004436402640A3B00FF225FE70122101AB2
:101430001B2800DD58E762469E3221009440C140DF
:10144000621E94410C43620704D00F222240042AFA
:1014500000D00434620105D4A401640A002245E7E7
:10146000AC46C4E70122002440E78022D2031443A3
:101470006402640AFF2239E740F50000FFFFFFF72E
:10148000F8B543025B0ADA00DE4693464A02520A86
:10149000454690464E4657464446E0B54A0047000A
:1014A0003F0EE400120EA1469C463E00C50FC90F38
:1014B000BC1AFF2A00D177E0012082465046414005
:1014C0008D4200D180E0002C51DD002A00D073E075
:1014D0004B46002B00D1DDE0013C002C0FD0FF2F4C
:1014E00000D1A5E001231B2C09DC20224946121B58
:1014F00091404B460A00E340511E8A4113435A462D
:10150000D31A5A0100D4C0E09B019C09200000F0CE
:1015100007FA230005388340864200DDC4E0861BBD
:101520001A0020200136F240861BB3405C1EA34106
:10153000002613435A0704D00F221A40042A00D071
:1015400004335A0100D4A3E00136F7B2FF2E00D1D4
:10155000A7E09B015B0A5802FF05400AED073843EC
:1015600028433CBC90469946A246AB46F8BD002CA9
:101570004FD1FE247A1C144200D09CE05A46002F22
:1015800000D003E1002A00D1F4E04A46002AE2D06C
:101590004B465A46D31A5A0100D405E14B465A46E7
:1015A0000D009B1A0026C5E74846002800D183E7B6
:1015B0008D4251D0002CDADDFF2F39D080234A46EE
:1015C000DB041A4391468DE7002C45DD002A3AD012
:1015D000FF2F2DD080234A46DB041A439146012376
:1015E0001B2C09DC20224946121B91404B460A0065
:1015F000E340511E8A4113435B445A0145D50136ED
:10160000FF2E4ED001226F491A405B080B40134356
:1016100090E7D41B0D00002F72D15B46002B00D148
:1016200092E0013C002C00D1C5E0FF2A6FD1C446F6
:101630006346002B35D080236246DB0313435B02F5
:101640005B0AFF2787E74B46002B23D0013C002C89
:1016500077D0FF2FC3D1EBE7002C38D1FE227E1CC0
:10166000324200D08CE05A46002F70D1002A00D1BF
:10167000A6E04A46002A00D16DE75B464B440026AF
:101680005A0102D5504A013613405A0700D053E799
:10169000DB089C46FF2ECBD063465B025B0AF7B2A9
:1016A00059E7FF27002356E7474A361A13405A07DF
:1016B00000D041E7ECE74B465A46D41A63016FD499
:1016C000002C00D022E700250027002343E7D11B90
:1016D000002F2CD0FF2AAAD080235846DB041843C1
:1016E000834601231B2908DC5B4620245846CB4057
:1016F000611A8840411E884103434B4416007CE731
:10170000FF2A94D080235946DB0419438B460123DA
:101710001B2C08DC20215B465846E3400C1BA040F4
:10172000411E8841034349461600CB1AE9E65B4651
:10173000002B09D001390029DFD0FF2AD1D1C446BE
:1017400076E75B464B4458E7C4461600A2E7002AFA
:1017500000D16CE74A46002A00D169E78022D20313
:10176000134200D164E74346134200D060E70D0006
:10177000C4465DE74B46002B1AD00D004346EAE60F
:10178000FF2E8ED05B464B445B087EE7002AE1D1FA
:101790004B46002BEBD180230025DB03FF27DAE645
:1017A0004B460D009C1AB1E60026002B00D06CE7DA
:1017B00000250023CFE64B46594616005B1AA0E6EB
:1017C0004346C8E6FFFFFF7DFFFFFFFB41024200EB
:1017D000C30F490A120E00207E2A03D99D2A02D97E
:1017E000094A98187047802000040143952A07DCB5
:1017F0009620821AD1404842002BF3D10800F1E72D
:10180000963A9140F7E7C046FFFFFF7F70B500288A
:1018100012D0C317C5185D40C40F280000F080F82F
:101820009E22121A962A11DCD2B2082833DD08381B
:1018300085406802400A02E00024002200204002A5
:10184000D205400AE4071043204370BD992A0BDDFE
:10185000052329001B1AD94003001B339D402B0090
:101860005D1EAB4119430D00052801DD431F9D405E
:101870002B000A490B406E0709D00F263540042D76
:1018800005D004335D0102D59F220B40121A9B0143
:10189000580AD2B2D3E76802400AD0E7FFFFFFFB45
:1018A00070B5041E0DD000F03BF89E22121A962A45
:1018B0000EDCD2B208282EDD083884406002400ACF
:1018C00001E0002200204002D205400A104370BD12
:1018D000992A09DD030021001B3399404B1E9941D1
:1018E00005231B1ADC400C43052801DD431F9C40E7
:1018F00023000A490B40650709D00F252C40042C12
:1019000005D004335C0102D59F220B40121A9B01C3
:10191000580AD2B2D7E76002400AD4E7FFFFFFFBC4
:101920001C2101231B04984201D3000C10391B0A0F
:10193000984201D3000A08391B09984201D30009D3
:10194000043902A2105C40187047C046040302022A
:1019500001010101000000000000000010B5002995
:1019600003D1FFF7DDFF203002E0081CFFF7D8FFAE
:1019700010BDC046002803D00A4908600020704707
:101980000120704710B5074C20680021064A00234B
:10199000FEF7F4FF0422D2430023FEF7CFFF2260BC
:1019A000104610BDC0000020C160A81010B5020094
:1019B00000210020C04300E0491CA24B1B78994243
:1019C00009D2A14BB42464004C431B191C68844207
:1019D000F2D11A60080010BD0021C9439A4AB4230D
:1019E0005B0058431150704780B50021202000F063
:1019F00001F801BD38B505000C0009F0B1FF9248AF
:101A0000B42149004C430019016C0D43056409F0F1
:101A10008FFF2021B648006809F032FF31BDFEB5C6
:101A2000894F0026B24C01A800900023DB4300221E
:101A3000190A20680DF03EF9002538E08169002977
:101A400010D018300DF066F9616801F0F1F809E086
:101A5000816B002906D1C16B0029EFD08163C66379
:101A600002F0B8FF6068C168002908D1816B0029C5
:101A700009D18169002902D1C06B002803D0290057
:101A80000120FFF7B7FF6068816B002905D1542161
:101A9000415A002901D000F094FF0198800702D537
:101AA000606803F0B1F8606800F0E5F96D1C654806
:101AB0000078854227D2B42040006843381860601F
:101AC00009F04EFF6068016C0191066409F030FF77
:101AD00001980028EAD0606800F0E7F901988006D4
:101AE00003D506F057FE06F077FE0198C007CAD569
:101AF0006068C1680029ABD00C300DF00BF961684B
:101B000001F036F8AEE7B948007800288BD1F7BD70
:101B1000F8B5012009F03EFF75490860002804D19E
:101B20000023002200210DF04AF80025FF26B04FC7
:101B30003BE04548B421490069434418A0225200C3
:101B4000002120000DF0E2F9A5600020C0432060D4
:101B500028000CF09DFB60602763A6486063FF20AF
:101B60003C302018067046706268A349A34806F00E
:101B7000D5F9002120000C300DF0F3F800212000F1
:101B800018300DF0EEF80021200024300DF0E9F8B7
:101B9000200000F08AF9200000F0A0F9B14806F01A
:101BA00029FD200000F067F96D1C26480078854269
:101BB000BFD3F1BD10B5244BB424640062439A181E
:101BC0001063516310BD10B50C0001001E48B42213
:101BD0005200624380180C300DF092F82100012071
:101BE000FFF708FF002010BD80B5FFF7ECFF02BD36
:101BF000F8B50D000024134909788D4201D3E8247B
:101C00001DE01149B42252006A438E18AE4909788A
:101C1000002904D0328C8A4201D3F1240FE007005E
:101C2000EBB20022390001200CF072FB39003000C9
:101C300018300DF065F829000120FFF7DBFE2000C9
:101C4000F2BD0000EE0A0100A8080020F8B50E0061
:101C50009E4909788E4201D3E820F2BD0700F3B215
:101C60000022390002200CF053FB9948B4214900AE
:101C7000714345182900380000F03CF8040010D1E9
:101C800038780E2804D0152813D01C281FD024E043
:101C90000F2038703A0008320121280000F026FB9E
:101CA0000400F3B22200390002200CF031FB2000C6
:101CB000F2BD16203870280000F0F7F8397A2800B5
:101CC00004F0F7FC0400280000F0D5F8E9E71D2037
:101CD00038703A0008320021DFE739002800183058
:101CE0000DF00EF831000120FFF784FE0020F2BD58
:101CF000C4000020F8B504000A00002100201B25C4
:101D00002678B61F15D0B61E1DD0B61E21D0361FA0
:101D100018D0B61F24D0761E28D0B61E2CD0B61EE2
:101D20002FD0F61E4CD0B61E51D0361F012E55D9DD
:101D300020E0092511002000083001F0ADFF01006E
:101D400000D02570F2BD11002000083002F046F9E5
:101D5000F5E70C2511002000083002F0F5FFEEE752
:101D600011002000083004F03DFCE8E71625217A38
:101D70000229E7DBE820E4E71825217A0229E1DBE4
:101D8000F8E71A25267A052E0ADA022E02DC267CCE
:101D90000F2E05DAE6684F4F374001D1002E01D1F2
:101DA000E82007E0926B002ACCD01278113A052A7D
:101DB000C8D2FC202072227A6272E1722161C0E7EF
:101DC0001D2521000831100000F00EFAB7E71F258D
:101DD00011002000083001F083FEB0E72425110037
:101DE0002000083001F08EF9A9E70000310B010056
:101DF000691E00006D1E0000E91B0000C71B0000EB
:101E000070B50020002431490978B4225200304BCB
:101E100000E0641C8C4207D2250055435D19AD6B70
:101E2000002DF6D0012070BD0024C62600E0641C01
:101E30008C4208D2250055435D19AD5D002DF6D0CA
:101E4000022070BD401C88420AD2040054431C1971
:101E5000E568002D02D1A469002CF3D0032070BDE9
:101E6000002070BDE919000080B500E080B509F0E0
:101E700037FE002002BD816B002900D0704780B57D
:101E8000C168002910D1806900280DD109F068FDD2
:101E900011480178002903D0491E0170090601D1BB
:101EA00000E000BF09F044FD01BD80B509F058FD18
:101EB00009480178491C0170C9B2012901D100E02B
:101EC00000BF09F035FD01BD64060020EE0A0100E7
:101ED000A8080020FF0700F8AC060020F1B584B088
:101EE00008200090B0220021049860300DF00EF818
:101EF000049C6834BB48E0812082A0810498BA30F9
:101F000001900F2001990870019988730499543148
:101F100003914873202060820521019A11710321E9
:101F2000019BD971019A91712821019A11720C219A
:101F3000019A51720199C8720620207704200199F4
:101F400048710120A0760199C870FA204000A08253
:101F50003620E082049800F00CFDA06068460CF08A
:101F600028FE0098019988700098000A019948702D
:101F700095A003C803C404988568954E95480078D9
:101F8000002857D09448007842010021684340015E
:101F900030180CF0BBFF9048007890490B781A007D
:101FA00042430A214A4300218D4C6B4343430A209C
:101FB0004343E0180CF0AAFF87480078BB490B7830
:101FC000190041434A0052180021B94C6B43434366
:101FD0005800C01820180CF099FF7F480078B549C8
:101FE0000B78190041434A000021B34C6B43434333
:101FF000580020180CF08AFFB0480078C200002179
:10200000AF4B6843C00018180CF080FFAD48007853
:1020100002010021AC4B6843000118180CF076FF58
:10202000AA48007882000021A94B68438000181854
:102030000CF06CFF049CEC346748007801006943A5
:10204000490171182160207500200090FF220DE0E9
:102050002168009E76018919496846008A55401C0E
:1020600019788842F4D30098401C00905A490F78A0
:102070000098B8424ED240010290584803781E00A2
:1020800057488446280070437843009F7743C61919
:102090000A204643604680192668029FF051206856
:1020A000029E801943730098400102907F48037894
:1020B00018007F4EB4462E0046430F787E43009FA3
:1020C0004743F01946003018664630182668029FCC
:1020D000F619B0602068029E8019037300984001D1
:1020E0000290744B1E78370073488446280078436A
:1020F00009784843009979434018410060464018E8
:102100002168029FC91948602068029940188673A7
:102110000020A5E769480078694902006A43D200B7
:1021200089186160607567480178674A0B006B43E6
:102130001B01D218A260A1750021002204E0A3684F
:1021400016019B191973521C03789A42F7D3002683
:102150000022FF20594904E06368D700DB19587159
:10216000521C0B789A42F7D3584F387858490200DE
:102170005543AA008918E160E07501990E7608229E
:10218000FF210498CA300CF0C1FEFF200199887627
:10219000009606E0E168009A920088540099491C74
:1021A000009100993A789142F4D30822FF210498D3
:1021B000E2300CF0ABFE0B4803990880049800F065
:1021C00000FC05B0F0BD0000FFFFFFFFFFFFFFFFB9
:1021D000240A0020F00A0100690600206806002099
:1021E000E51A0020FFFF000070B54A68127800234E
:1021F0000024097838A5A6B2AE5DB14229D0641C8E
:10220000A6B2122EF7D3334C9DB26E007519641925
:102210002578A9421FD05B1C9CB2202CF3D303006D
:10222000BA33EC304E2912D04F291CD054291CD07F
:1022300088292ED096291CD097292AD098291AD0DF
:1022400099291AD09A2928D09B291CD009E0062A5E
:1022500021E0FB2070BD6078824225DBA0789042AF
:1022600022DB002070BD187900E018789042F8DA7F
:102270001AE0007D0EE0C07D0CE00168007E4001A8
:102280000818407B06E00168007E40010818007BCA
:1022900000E0407D8242E4DB06E00168007E400110
:1022A0000818807B8242DCDBE82070BD67060020D6
:1022B000D91A00206A0600200D1B002066060020A7
:1022C000140A002065060020500700206B0600203D
:1022D000151B002080F5000040485E5F545B717262
:1022E000737475767F80818283840000F2B586B036
:1022F00004000025107800905068039000988F2803
:1023000003D0912801D0902857D12000EC30407E96
:10231000C00002902000EC304068401D0299405CF3
:10232000FF2811D12000583000F005FCFF281DD0F7
:102330002100EC318A680C3203010126D654496829
:10234000491D029A885438E06946097E002934D133
:102350002600EC360701B0680C30C05D01282CDD8A
:102360002000583000F0E7FBFF2801D1F9207CE283
:10237000010101910121B2680C32019BD1547168B5
:10238000491D029A8854B0680C30C0190178491E62
:102390000170B268D01903C8019BD21803C2B0689B
:1023A00001000A31C95B0A30019A8152B06801000C
:1023B0000831C95B0830019A81520098C0B200F020
:1023C00059FA2200B9322100EC31009B203B7B2BD3
:1023D00000D9C6E101A65B00F65AB7441201F60027
:1023E000840384031A012001840384038403840387
:1023F0008403840384038403840326012C0184035F
:102400008403840384038403840384038403840394
:10241000840384038403840384038403340140011C
:1024200046014C01520158016001640184036A01B4
:10243000700176017C0182018E01A001B201BA0116
:10244000C801D601DE01F0013A01880194019A0128
:10245000C201E401EA01D001A601AC0184038403B6
:102460008403840384038403840384038403840334
:102470008403840384038403840384038403F601B4
:10248000FA01020206020C02100216021C022202CB
:1024900028022E0234023A024002460250025C0236
:1024A000680274027E028A029602A602BA02CC0276
:1024B000DE02F402FC0204030C0318032A033003B7
:1024C00034033C034203520366036A03700374033C
:1024D0007E037A0323006133022502006846007EF2
:1024E000012800D03FE1190003980CF0EBFC5CE1FF
:1024F000230060330125F0E723006233EDE723007A
:102500006333EAE723006433E7E7230058332025E9
:10251000E3E723007E33E0E723008033DDE7230099
:102520008133DAE723008233D7E723008333D4E70C
:1025300023008433D1E7230085331078CDE71300DF
:10254000CBE72300BA33C8E72300BB33C5E723003A
:102550006833C2E723007433BFE72300BC33BCE712
:102560002300BD33B9E72300BE33B6E72300BF33F2
:10257000B3E723007033B0E72300C033ADE7230097
:10258000C133AAE72300C233A7E72300C333A4E77C
:10259000230076330825A0E72300C43304259CE7F5
:1025A0002300C53399E72300C633402595E7230070
:1025B000C73392E72300783310258EE72300C83312
:1025C0008BE723007A3388E72300C93385E72300AC
:1025D0007C3382E70B6880E78021490063187CE741
:1025E0004B687AE7FF21891CF8E7CB6875E7FF2184
:1025F000091DF3E72300FC336FE72300D2336CE7B8
:102600002300D33369E72300CA3366E72300D433BA
:1026100063E72300E23360E72300D8335DE723005C
:10262000E0335AE70A68097E4901535855E70A68BA
:10263000097E490153180D334FE70A68097E4901A5
:1026400051188B6849E70A680C32097E4901531812
:1026500043E70A68097E49015118C1E70A68097E03
:10266000490153180E3338E70A68097E49015318A7
:102670000F3332E70A680B7E5B01D2185268497F3C
:102680004900E4E70A680B7E5B01D2185268497F73
:10269000490051184B1C20E70A680B7E5B01D218D9
:1026A0009268097F4B005918D1E70A680B7E5B01DD
:1026B000D2189268097F4B005918EAE70A680B7E26
:1026C0005B01D2189268097F4B00591851188B1C76
:1026D00003E7CA68897E8900B9E7CA68897E8900EC
:1026E000D7E7CA68897E8900F0E7CA68897E8900D1
:1026F0005118CB1CF1E68A6808324B685B1D497E95
:10270000C900595C0901A2E78A680A32F5E78A68BC
:10271000F3E74A68497EC90099E74A68121DF9E75C
:102720000A680B7E5B01D258C97E0A2359438EE7A3
:102730000A680B7E5B01D258C97E0A23594353189D
:102740000933CAE6822148E7FF21891D46E7832134
:1027500043E7FF21083141E784213EE7FF210A31A9
:102760003CE7F42081E0039918000CF0ABFB20005B
:10277000FFF79BFB26005436280008D05420205A2F
:1027800005433580A1680120FFF734F90AE000987D
:102790004F2803D0572801D04E2803D1200000F045
:1027A000E8F8F0612000FFF766FB00988F2803D05F
:1027B000902801D0912857D12000EC30407EC100F4
:1027C00003912100EC314968491D039A8D5C002179
:1027D00001910026290100910590049400E0761CE7
:1027E0002348007886423FD2F00002900499EC31F1
:1027F0004868401D029A805CFF28F0D0059A9642F6
:10280000EDD0A842EBD08C680701009820180CC8C6
:10281000E01903C88B42E2D18242E0D120000830A7
:102820000099405A21000831C95B8842D7D1200065
:102830000A300099405A21000A31C95B8842CED142
:102840000498EC30019922000C32009BD15481682D
:102850000C31C9190A78521C0A704068411D029A4D
:10286000895C401D039A8154002007B0F0BD000030
:1028700066060020010000202039012977D9091FB0
:10288000012974D90B3972D0491E6AD0103966D02B
:10289000491E03296BD9091F5DD0491E012966D93C
:1028A000C91E64D0491E5CD0491E58D0491E032958
:1028B0005DD9091F53D0491E012958D9891E4ED010
:1028C000491E54D0491E4AD0491E01294FD9891E9C
:1028D00049D0491E01294AD9891E40D0491E0329E1
:1028E00045D915393FD0491E41D0491E3BD0491E1C
:1028F0003DD0491E37D0491E39D0491E33D0491E1C
:10290000012934D9891E2CD0491E30D0491E0129F5
:1029100027D9891E23D0491E25D0491E27D0491EFC
:1029200021D0491E23D0491E1DD0491E1FD0491E4B
:1029300013D0491E08291AD9093901290FD9891E2E
:102940000FD0491E0FD0491E11D0491E0DD0491E6F
:1029500006290CD970473420704710207047022098
:1029600070470820704704207047092070470120F5
:102970007047F8B50300BE331978DA788A1A002553
:1029800000215B78934200D21A00012407E0060080
:10299000BE36F7787E190127B740C9196D1C9542DC
:1029A000F5D3BE25455DAC40641E9A1A54430C19FC
:1029B00081680120FFF71EF814204443F6302018E8
:1029C000F2BDF8B588B004006D460C2028700126D1
:1029D00000275420205A400830420DD02F7220008A
:1029E0005830407A00216A46103203C2A0686870ED
:1029F0006168684605F022FB5420205A304213D00B
:102A00000620287220005830007A022801D10120C7
:102A100000E0002000216A46103203C2A0686870FE
:102A20006168684605F00AFB5420205A800830424D
:102A30000DD008202872C420205C00216A46103284
:102A400003C2A06868706168684605F0F7FA542010
:102A5000205A000930420ED004202872200058303D
:102A6000008C00216A46103203C2A0686870616859
:102A7000684605F0E3FA5420205A400930420CD051
:102A800003202872A06DE16D6A46103203C2A0686F
:102A900068706168684605F0D1FA5420205AC00871
:102AA00030420ED00520287220005830C08B002103
:102AB0006A46103203C2A06868706168684605F013
:102AC000BDFA5420205A800930420ED00D202872C1
:102AD0002000C430807800216A46103203C2A0680A
:102AE00068706168684605F0A9FA5420275209B059
:102AF000F0BD10B5194AB4235B005943541808229D
:102B00000100200058300CF0DDF95420205A20211B
:102B1000014354202152A1680120FEF76BFF10BD34
:102B200010B508220D4BB424640061435918583184
:102B30000CF0C8F910BD0100002000E0401C084A5C
:102B40001278904208D29C228A580301D218127B34
:102B5000002AF3D1C0B27047FF207047A8080020B8
:102B60006506002080B581680220FEF743FF01BDA5
:102B700070B504005BD00D002078C421695C002989
:102B800026D0022824D1607C04284DDD80284BD239
:102B90007246B2480178B62008F070FF060043D0B4
:102BA00005203070207C30722000083003C80002FD
:102BB000000AF060607C3074300018307061627C14
:102BC00061690CF07FF9296830002A6B90472BE08F
:102BD000401E21D0401E0BD0401F1DD0801E1BD098
:102BE000801E19D0801E17D0801E012814D91BE02A
:102BF0008820400029182000083002F0A1FD00289C
:102C000005D1AA6B002A0FD01020207007E0290000
:102C1000200001F06BFA70BDAA6B002A04D02900D5
:102C20002000526890470400200008F059FF70BD52
:102C3000F8B58AB0040000D10EE104260D0020781A
:102C4000002822D0C01E30D0C01E13D0801E24D039
:102C5000801E13D00A3800D1F4E0C01E00D1DDE0A0
:102C6000801E5CD0401F00D1E4E0001F012800D886
:102C7000E4E0EEE0200001F037F8E9E0207D0128F3
:102C80000BD0200002F0A5F8E2E06020285C0028CC
:102C900007D02A20205C304203D0200000F01AF92F
:102CA000D6E0200000F0DEF8D2E0207A6946087015
:102CB000684601782800243003F0BBFD070023D0CC
:102CC000A86B874220D038000CF046F8B98A28005B
:102CD000243003F07CFD002809D102A8B97D0172DF
:102CE00005210170A9684170696805F01DF9F8684F
:102CF00008F0F6FE0020F860B86808F0F1FE380031
:102D000008F0EEFE002000E0E720607268460078E0
:102D100020722670296820002A6B904798E0677C13
:102D2000207A00901221002003F093FDA863060092
:102D30001A202070002E62D0A8680BF09BFA484839
:102D40007060F460207C3082009803280DD1A07C54
:102D50003077E07C70772020205CB077082221005B
:102D60001831300014300CF0ADF8E068E0600098E5
:102D70006072A772EA2020720021E17221610120B5
:102D8000009A042A01D1617204E0328A012393403F
:102D90005B1C338202AA0C2313700D231372009B59
:102DA000002B02D0009B042B00D1002002AB10337B
:102DB00003C3A8685070696802A805F03FF900983D
:102DC000002812D0022808D007D3042812D03FD2FE
:102DD0002900200000F015FC3AE07620285AB08245
:102DE0002900200000F0E0FB32E02900200000F084
:102DF0009FFB2DE02900200000F081FB28E0E06827
:102E0000E06000986072A772FA2020720020E072E1
:102E10002061296820006A6B904719E0200000F0CB
:102E2000B9FA1820207000262672296820006A6BE3
:102E300090470DE0200000F0B3FE09E0200000F014
:102E400080F905E0A07C012803D1200003F0E6FB17
:102E50000024200008F044FE0BB0F0BDEF0A010092
:102E600071340000F8B507000C00083001F080FC58
:102E7000050016D10621380003F0EBFCA063220008
:102E8000390001F0B0FC05000026002D14D0A06B25
:102E9000002806D0806808F023FEA06B08F020FE12
:102EA000A663012038702920385C38727D72216851
:102EB0003800226B9047F1BD2920385CA16BC875A2
:102EC000A06BC06808F00CFEA06BC660200001F08B
:102ED0000EFFF1BDF8B590B006000D0000240027EC
:102EE000280024300BF0C2FF8449097888426AD058
:102EF0003078002806D129003000083001F038FC75
:102F0000070018D1307800284AD0082802D00A28B3
:102F100037D058E00221300003F09BFC040052D06F
:102F2000143001907620285A0090300008300CC8E8
:102F3000032003F099FC380073D0982040002C182F
:102F400008302818317800295CD0082902D00A29D5
:102F50003BD062E0B17C017000290AD0F17C417065
:102F60002021715C817008223100183120000BF0A3
:102F7000A9FF0295032001902800583000900323F8
:102F800039E00721300003F064FC04001BD014304A
:102F90000190308A0090300008300CC8B07CC8E73F
:102FA0000621300003F055FC04000CD02920305CD1
:102FB000E075200014300190708B009030002030BC
:102FC0000CC8707EB5E7F127B7E7717D0170002965
:102FD0000AD0B17D41702021715C817008223100DE
:102FE000183120000BF06EFF02950320019028009D
:102FF00058300090B37C320008322100380001F0D4
:10300000B8FA0AE0012030702920305C3072777203
:10301000296830002A6B90470026300008F060FDD8
:1030200069E0A18A2800243003F0DEFB07002100BC
:10303000280024300BF064FE7C20295A01910120E5
:103040000090BA20285C0F21FDF738FC0120884051
:1030500001994843F021890048432061002F04D1A1
:10306000280003F017FCA0750BE0B87DA075307840
:10307000002806D1F8682A21415C40220A432A210F
:10308000425408A8A17D0172A18A418103210170E7
:10309000A9684170696804F047FF286D002814D1C1
:1030A00005F0D8FA02000B00206900218018594170
:1030B000A864E96422692A65114A0692079504AA60
:1030C00003C204A805F000FC15E02169081820617E
:1030D00005F0C0FA04AA03C2AA6CEB6C04A803C8EA
:1030E000994208D801D3904205D22069821A04A8D7
:1030F00003C81018206111B0F0BD0000D81A0020DC
:10310000652B00000278022A01D0032A13D1642221
:10311000895C002911D1017C08290CDA4288994B7D
:103120009A4208D000290AD0417C042903DA2021E0
:10313000405C002803D1E820704700210174002082
:10314000704738B588B005000C002878222801D1D6
:103150000C2100E00D21280003F07BFBA06322007E
:103160002900A06B01F03FFB0500A0680BF082F87E
:10317000280013D16A460C2010700E201072206FA8
:1031800000216B46103303C3A06850706168684625
:1031900004F054FF200001F0AAFD04E02200290001
:1031A000002000F07DF809B030BD1FB51400080004
:1031B00003D0002000F074F81FBD73480290039400
:1031C00005F048FA226F0023801859416A4603C26D
:1031D000684605F079FB9E21490060546B48A16B5D
:1031E00048601FBDFEB504000E00EB2500270197C7
:1031F000207802282CD18C20400030188089694624
:103200000880684600884007400F01281ED18C20A6
:1032100040003018017C002904D19C214900715CD8
:10322000002915D003C8574AB94201D1904216D09F
:103230000022D243914201D1904210D0002568462D
:1032400000880006000FC707FF0F01E0019400246B
:1032500032002900380000F023F8002D03D131009E
:10326000200001F02DF9002F15D00C20B16B087053
:103270002220B16BC9680870B06B3200C16801F0E0
:10328000B2FA010003D1300001F031FD03E0320059
:10329000002000F005F8200008F022FC0198FEBD97
:1032A000F8B588B005000F00140028000FD16A4659
:1032B0000C2010700E201072002000216B4610337D
:1032C00003C3A06850706168684604F0B7FE9E2092
:1032D00040002618307805F0F1F9FF203070A16B1E
:1032E000002608780D2812D1280006D072462848FA
:1032F0000178382008F0C2FB01E0C868CE600028E1
:1033000005D02421017007722168626B9047002D5F
:1033100010D1A06BC06808F0E3FBA06B002806D0BA
:10332000806808F0DDFBA06B08F0DAFBA663A068FC
:103330000AF0A2FF09B0F0BD38B584B004007246AF
:1033400013480178022008F099FB9E214900651876
:10335000002807D0FF21297010210170A168FEF715
:1033600043FC0DE008480290039405F073F9002235
:10337000643051416A4603C2684605F0A5FA2870D8
:1033800005B030BDFFFF000039330000E53100001B
:10339000EF0A010070B58CB00D00C621695C0029F0
:1033A00023D1060004AC0C2020700D20207230695F
:1033B000002811D02C480290039505F04BF9326992
:1033C0001202120A002312184B4168460CC06846CC
:1033D00005F07AFA0120002104AA103203C2A8687D
:1033E0006070696804A804F029FE0CB070BD38B59F
:1033F00088B06C46002A0ED0122525726D46103515
:1034000003C50692BA20185C0F2801DA0C2000E0F0
:103410000D20607201E0032020720A20207098685D
:1034200060705968684604F009FE09B030BD38B5CF
:10343000040072460D480178382008F01FFB050093
:103440005420205A40210143542021522000FFF7EC
:10345000B8FA002D07D018202870D02028722168D3
:103460002800626B904731BD2F340000EF0A010045
:1034700038B505000C002878012838D0022807D07C
:10348000072826D0092803D0102833D107202BE0A5
:10349000A06B0078112807D016D313280CD007D3BF
:1034A00015280DD008D30FE0280000F0E9F80EE051
:1034B000280000F010F90AE0280000F036F906E0D4
:1034C000280000F0D1F902E0280008F009FB0025EF
:1034D00010E0200001F0EEFB012803D1200000F0F5
:1034E000DAFA07E02100002000F0A3F802E0200053
:1034F00000F0B0F8280008F0F3FA002032BD38B52B
:103500000D00AC6B11202070208A02F0F5FAE16802
:103510000861E0680069002809D0724656480178C1
:10352000202008F0ABFAA060002800D031E029E0AC
:1035300038B50D00AC6BE068C06841084F4A0A40DE
:10354000801AC3490A000240800801405018122125
:10355000217001094018BF490140BF484143080E8E
:1035600002F0CAFAE1680861E0680069002809D041
:10357000724641480178202008F080FAA0600028B7
:1035800000D006E0FA20E1680872280000F019FA7D
:1035900031BD082101700022D243134608300CC00F
:1035A000280000F0AEF931BD38B50C00A56BE86815
:1035B000407A012801D1132000E014202870A74888
:1035C000762160525420205A082101435420215270
:1035D0002000FFF7F6F97246A1480178A02008F014
:1035E0004DFAE9680861E9680869002805D0A02259
:1035F00000210BF08BFC2000D3E7FA20087220009A
:10360000C4E710B50C00A06BC521615C01821521D7
:1036100001709248762160525420205A08210143BB
:10362000542021522000FFF7CCF9200000F069F966
:1036300010BD38B502000800816B072A06D1CA68A0
:10364000D36801248D7CAC40A343D3608A7C521C98
:103650008A74A6E71FB5040082480290039404F020
:10366000F9FFA26B138AF02292005A43D317121863
:103670004B4168460CC0FFE1EF0A01005555555516
:1036800038B50C00A56BEA688178072907D1D17A93
:103690004B1CD372C278EB681B695A5404E0E121D9
:1036A0001172298AEA68D17208F01AFAE868C17AB8
:1036B0002A8A914207D2A068A96848706168A86800
:1036C00004F0BCFC31BDC1680122AB7C9A4091433F
:1036D000C16020005AE770B50C00A56B81780729FE
:1036E0000DD1E9680A69C97A5118C278EB681B697B
:1036F000EE68F67A9B5D9A4200D21A000A7008F0D2
:10370000EFF9287D002807D1A068A9684870616892
:10371000A86804F093FC70BDE868C17A491CC172C6
:1037200021000720FFF785FF70BDF2B58CB00400C3
:10373000886B02901F22002104A80AF01BFC0026BF
:103740000C9892214900405C40077CD10298C068E7
:103750000830009000990E700C9A04A9200000F027
:10376000D5FD002872D1200008F0BAF90C9882210A
:10377000405C01286AD10098856804A8807A0228F4
:1037800002D10024039025E00820FAE7E0B20528E2
:1037900001DB3D680024E0B24101081A0190019864
:1037A0002F18039A390004A80BF0A2FB00280FD0B1
:1037B00004A8817A2A000A32019BD25C914207D187
:1037C000397A7A7A1206120C1143008988423DD068
:1037D000641C761C2F009C370099C978F0B288428F
:1037E000D4D32800009C9B21415C05290DDB724647
:1037F000B8480178A02008F041F900281BD000212A
:103800009B23C1549C228150386005009B352B7846
:10381000052B1BDA1F2204A95E01F31AC0180BF056
:1038200051FB2878401C2870E078401CE070C0B242
:103830000A280BDB03E0FA200299C96808720C9889
:1038400000F0BFF802E0200008F04AF90DB0F0BD2A
:10385000333333330F0F0F0F01010101FFFF00005E
:10386000EF0A01002F3A000070B505000C00A06BB4
:10387000C66808369220400021186869CA78801806
:1038800009784907490F032937D10178082934D12C
:10389000427881780906090C0A43210074314A8074
:1038A0008279C3791B061B0C1A438A8042796123F3
:1038B000E254C27803791B061B0C1A430A800822C3
:1038C000882040002118200068300BF0FBFA5420BB
:1038D000205A1A210143542021522000FFF771F889
:1038E00070680121A26B927C9140491E0140716079
:1038F00000203070200000F064F8280008F0F0F894
:1039000070BDF8B58AB0846B00270097012506E0EA
:10391000E268D268CA402A4005D1491CA174A17C42
:103920001B29F5DB43E0060002AA0C201070177279
:10393000A07C002102AB103303C3B06850707168E3
:1039400002A804F07BFB2078112807D037D3132876
:103950001ED003D315281BD016D330E0122803D174
:1039600027753000FFF776FEA2680820107000204F
:10397000C04301461300083303C3B0685070716838
:10398000A06804F05BFB1AE03000FFF763FE16E06E
:10399000152802D120001430009032000099200038
:1039A00000F021FF010005D0E1680872300000F04E
:1039B00008F804E0A0688575300000F06CF80BB0E2
:1039C000F0BD70B50400A66B543000253178113974
:1039D000012910D9891E01290FD8F168CA7A0A2A4B
:1039E00001DBFA220A72B18A41845421615A082209
:1039F0000A43028001E0F26815725421615A4222A2
:103A00000A4302802000FEF7DCFFA0680AF034FCC5
:103A10002168F068626B9047A06B002806D0806830
:103A200008F05EF8A06B08F05BF8A56370BD1FB5E9
:103A30000400A06B0178123903D0491E022903D972
:103A40001FBD012101751FBD724622480178022069
:103A500008F014F8002805D010210170A168FEF7C5
:103A6000C3F81FBD1C480290039404F0F3FD00222C
:103A7000643051416A4603C2684604F025FF1FBD09
:103A800080B58168826B926851704168806B8068F4
:103A900004F04AFA01BDDFB5040001F0FBF80600AE
:103AA00004F0D8FD002E09D1A068A16B8968487088
:103AB0006168A06B806804F037FADFBD074A0292A4
:103AC0000394002736184F416846C0C0684604F08A
:103AD000FBFEDFBDEF0A01002F3A0000813A000033
:103AE00070B50400A07A02284FDAE07A02284CDA96
:103AF000207B022849DA207A102846DA627A90423E
:103B000043D30D007820285A2449884201D1EC2063
:103B100070BD6420285C002839D1607E082834DA22
:103B2000617B082931DA002806D0A27E032A2CDC2A
:103B30002822A25C002A28D0002905D0A17B0329D5
:103B400023DC217E002920D0002817D09C214900A9
:103B500069180870A07E48702820205C8870982022
:103B600040002E1808222100203130000BF0AAF965
:103B70003100280002F0CDF801000DD1E0780028D6
:103B800003D1A0780B38102805D3E82070BD0020A1
:103B900060766073E070002070BD0000FFFF0000E1
:103BA00038B505000C00287D012813D10421280018
:103BB00002F04FFEA0632200290000F014FE010075
:103BC00003D1200001F093F831BD2200280000F05D
:103BD0003AF831BD280000F006F822000021280044
:103BE00000F045F831BD38B502000800BA31137C49
:103BF0000B70137C0F2B01D18B7304E0537C8B7300
:103C0000D37C8324035501230B73010054315424C6
:103C1000045B402525430D80947C012C0BD1947AC4
:103C20004C7312894A8402220A735422825A0A244B
:103C300014430C8000E00B735422825A13430B8010
:103C4000FEF7BFFE31BD70B505000C001600200068
:103C500003D131002800FFF7C6FFBA20305C0F28DF
:103C600004D132002100280000F001F870BD10B529
:103C700014001F22027001722168626B9047A06BD2
:103C8000002807D0806807F02BFFA06B07F028FF03
:103C90000020A06310BD000030B502000024002009
:103CA000957A022D01D0032D19D160254D5D002D8F
:103CB00015D16425495D002913D1117B08290EDA3D
:103CC000002905D0517B042909DA117E002906D08C
:103CD000917E002903D1D17A0B39102903D3E82032
:103CE00030BD1473947630BD38B504000D0000214A
:103CF00002F0AFFDA8632A00210000F074FD01006E
:103D000004D02A00200000F00BF931BD2A006832EF
:103D1000208AD081E07C612168542000083003C8EB
:103D2000A37C022B01D1030002E0A84B03C2083A96
:103D300093815420285A0A210143542029522800F3
:103D4000FEF73FFE280000F0D2FF31BD38B588B045
:103D50000400A56B002D14D06A460C2010700E20B4
:103D60001072206F00216B46103303C3A06850709F
:103D70006168684604F062F901202870200000F0B4
:103D800029FE09B030BDF8B58AB007000E00140056
:103D900002AA0C2010700E2010720020002102AB2D
:103DA000103303C3A0685070616802A804F046F99C
:103DB000A06B310030D081680091002500291DD012
:103DC000856000988672824800990881387D009944
:103DD000C872787D009908732020385C00990876B5
:103DE000082239001831009810300BF06BF80920C8
:103DF0000099087021680098626B9047380007F0BE
:103E00006FFEA06B002809D0806807F069FEA06BE8
:103E100007F066FEA56301E06E4941600BB0F0BD9E
:103E2000F8B584B006000C0000250395A06BC068AF
:103E300000900195EB2002909221490061183278A0
:103E4000022A0DD17269CB78D21801920A785207F2
:103E5000520F032A04D1019A1278022A00D1029546
:103E60000922009B1A70009A9072594F009807819E
:103E7000087D009AD072487D009A1073887D009961
:103E800008760822982040002118009810300BF086
:103E900019F80298002831D10198C17800988172F0
:103EA00020008030002921D10121017002220198D7
:103EB000411C009808300BF005F802220198411CC3
:103EC000200078300AF0FEFF5420205A10210143D0
:103ED000542021522000FEF774FD08228820400063
:103EE0002118200068300AF0EDFF03E00570200083
:103EF00054304784300007F0F3FD00E00396A06BD8
:103F0000002806D0806807F0EBFDA06B07F0E8FD05
:103F1000A56321680098626B9047039805B0F0BDD7
:103F2000F8B584B0060008001400010008D1A06BA9
:103F300080688369020017323100200001F036F8F2
:103F400001002AD0A16B8F680025002F17D08D604B
:103F500009213970B8721E483881307DF872707D41
:103F600038732020305C3876082231001831380050
:103F700010300AF0A7FF21683800626B90473000CC
:103F800007F0AEFDA06B00281DD0806807F0A8FDEB
:103F9000A06B07F0A5FDA56315E00F480290039400
:103FA000C520205CF02189004843C1176A4603C23E
:103FB00004F050FB6A460CCA801859416A4603C295
:103FC000684604F081FC05B0F0BD0000FEFF000073
:103FD000FFFF0000213E00004D3D0000427E022A0E
:103FE00003D0012A01D0002A0ED16022895C002969
:103FF0000AD0817A082907DA002907D0C17A042972
:1040000002DA007E002801D1E820704700207047C6
:10401000FEB505000E001400A97C9C20400020186D
:10402000017098225200A71800290AD0E97C41703B
:104030002021695C817008222900183138000AF0BB
:1040400041FF300002940321019121005831009179
:1040500003232A000832390000F08BFAF7BD000074
:10406000FEB50D0000260027922149006C1821881A
:10407000C908C9072BD50600982040002B1832002C
:1040800011327169280001F0C7FF07000CD1207DB3
:10409000002826D0E0781449627D895C4018E070E1
:1040A000717C081A20711CE020880295810B019117
:1040B00088214900691800910005830F8C20400079
:1040C0002A1818302918380000F053FA09E026752C
:1040D0006675082200219820400028180AF016FF73
:1040E000A6753800FEBD0000AC5B0000F8B58AB0D4
:1040F00004000D00FFF7B4FF002817D1AA6B002AB7
:1041000004D029002000526890470400002C0DD0F4
:10411000882040002E186069F17D47180720B18A79
:10412000014004D001290AD003290DD0E9E02A007A
:104130006946200000F0EAF80028F7D0E0E0290006
:10414000200000F0BDF9DCE09C2149006A183978B4
:10415000491E0729F7D802A35B5C5B009F4400BFA0
:104160003CD14904616B85B425202070308A2083BE
:10417000B08A800B207203CE083E2200103203C2A8
:10418000296820006A6B9047002402A80E21017064
:104190001021017269460591A9684170696803F0B0
:1041A0004DFF68460078002815D0280000F0B7FAC7
:1041B000002810D131002800243002F025FBA8632C
:1041C000002805D02A00C16800F00DFB00286BD044
:1041D000280000F066FC94E08121695C0129FAD195
:1041E0006021695C0029F6D0207078782121605424
:1041F00023E00B20207003CE2300083303C3107884
:1042000060745078A074907820216054082298201F
:1042100040002918200018300AF054FE78782074E5
:104220001EE0029500200190280060304078009048
:10423000738AEE225EE01320207003CE2300083341
:1042400003C31078207450786074907820216054F3
:104250000822982040002918200018300AF032FE69
:10426000296820006A6B90474AE0286800E000BF98
:104270006020285C002844D0BA20285C0F2840D158
:1042800028006030807800283BD1280000F047FAF1
:10429000002836D1032102F0DCFAA8632A000021AD
:1042A00000F0A1FA002803D1280000F020FD28E04A
:1042B000A86B002825D0806807F012FCA86B07F0D7
:1042C0000FFC0020A8631CE06020285C002818D1A7
:1042D000B08A8004800F012801D1387A00E00020E4
:1042E0007B78B9780906090C0B430295019078791F
:1042F0000090EF22982040002918200000F08AF951
:104300000024200007F0ECFB0BB0F0BDF8B584B042
:1043100005000E0014006869902149006118C979F0
:10432000401801901F22002130000AF0EFFD90207C
:10433000400020188088800BB0728820400021182F
:10434000B07A022801D1022200E0082230000AF0EF
:10435000B9FD90204000205A3072000A7072A06BA4
:10436000002806D00178132901D0142901D1807CBE
:1043700001E06120205CF072287C30740322290067
:104380000831300011300AF09DFD0027377390206E
:1043900040002018007E3075902040002018407E9C
:1043A0007075902040002018807EB07708229820F9
:1043B00040002118300016300AF084FD02220199D5
:1043C00030000D300AF07EFD2100300000F04FF982
:1043D00000280DD0029401976120205C009090206D
:1043E0004000235AEE220021280000F013F962E079
:1043F000F7730198C178072207230B4000930B093C
:104400001A406B465972001D0190039000980028D5
:1044100004D001980099490040180190002A03D067
:104420000198D100401801906869697C4018019991
:10443000884202D2002D40D13DE0401A6946087200
:104440008220205C002803D06846007A002830D003
:104450007246C4480178572007F010FB00900028EE
:1044600027D00D20009908706846007A009988725C
:1044700001980099486103980099C8600098383005
:10448000009908611F223100009800690AF01AFDA6
:104490006846407A00994872902040002018807940
:1044A000009908720098856121680098626B9047B6
:1044B00001E0002D01D1012000E0002005B0F0BD99
:1044C000F8B507000E007246882040003518A54850
:1044D0000178287E403007F0D1FA00900446083475
:1044E000002845D0A87D60772800083003C803C4A1
:1044F000083CA88A0005800FA072688A20819C2051
:104500004000301801782422A15441782522A1547A
:104510008078302160540822982040003118200013
:1045200028300AF0CFFC387C2077200038306063D8
:104530002A7E7869E97D4118606B0AF0C3FC287E09
:10454000E07603CD083D2200103203C2A88A800B1A
:10455000A076288A20833800083003C80002000AA9
:10456000206202200099087031680098326B9047F1
:10457000F1BDF7B506000D001F00724679480178BD
:10458000382007F07BFA040043D029001B2020705C
:1045900021202654002910D0087A2222A054087A1B
:1045A00000280AD0487A2322A054887A3022A054C6
:1045B0000822200028300AF085FC0A9D099A6846E6
:1045C00007707620285A208268460078202160549F
:1045D000A274002000212300083303C323001833F2
:1045E00003C3022A00D008220899200008300AF0EC
:1045F00069FC68460078022801D1022200E0082206
:104600000299200018300AF05DFC296820006A6BCE
:104610009047F7BDF8B50E0015001F00002808D11F
:10462000724650480178382007F028FA040001D17A
:10463000F1BD0400069831002122227025726781A5
:10464000207300290DD0087AA073087A002808D0BA
:10465000487AE073887A20760822200010300AF029
:1046600031FC089A11682000526B9047F1BDF0B5FB
:104670000024427B837B1B061B0C1A430125920BF3
:104680002A4221D0037A427A1206120C13430A00FE
:104690006032D68AB34217D16023CB5C022B12D092
:1046A0008023C95C00290FD0817A022902D1968A21
:1046B000002702E011000831C0C901F06DFFB942C6
:1046C00001D1B04200D001242000F0BDD0B50400DB
:1046D000227A607A0006000C024308006830C38921
:1046E0009A4218D1A27A022A0CD18689002720008A
:1046F00001F052FF02001C4800211040220001F08E
:1047000061FF01E08E6ECF6E200001F045FFB942DF
:1047100001D1B04201D00020D0BD0120D0BDF8B5FC
:10472000050000260024A86B002819D0E96B002999
:1047300009D141680D4A914205D10178062904D179
:104740000069002801D0E2240AE0FF203C302F1845
:10475000387803F0B3FFFF203870A86BE863AE63CE
:104760002000F2BDEF0A0100FFFF0000DD4C000059
:1047700010B504006420085C012802D10020232128
:104780006054207C617C002903D1002801D1F520F0
:1047900010BD042823DA042921DA022806D12000DA
:1047A000083003C880B29549884218DA200001F029
:1047B00039F82021615C884201D2E52010BD222019
:1047C000205C800701D5E62010BD2320205C002856
:1047D00007D0082803DA2420205C042801DBE82025
:1047E00010BD002010BDF8B50600002401206B4666
:1047F0001870002E59D00D000CD13078032809D044
:10480000182807D00B2805D0132803D0152801D06D
:10481000E824DDE01700B068002827D130780328AD
:1048200013D0062802D0182813D014E0280008302E
:1048300001F010F82821695C401820302A21695CB9
:10484000C90609D56A46147006E0B920385C6B3099
:1048500002E02D2000E0602072466749097807F0E9
:104860000DF9B060002801D1F120F2BDB068083028
:104870000100143101613178002917D0891E30D030
:10488000491E40D0491E58D0891E4DD0491E31D0F6
:10489000C91E52D0491E58D0491E01295CD9C91FD2
:1048A00062D0891E67D0C91E34D06CE00369020053
:1048B0000F3229000831380000F0CCFA0400A8D1EA
:1048C0003900300000F03AFAB2684DA003C8130076
:1048D000083303C368460078002856D0012050757D
:1048E00057E0036902000F3229000831380000F058
:1048F000E5FAE3E7036902000F32290008313800C6
:1049000000F01CFBDAE7036902000F32380000F008
:104910008FFCD3E7036902000F328820400039186A
:10492000380000F0A9FECBE7036902000F3229002E
:104930000831380000F05CFDC0E7036902000F3267
:104940002900380000F0DEFBB8E7026901000F31F2
:10495000380000F086FBB1E7036902000F3229003E
:10496000380000F023FBA9E7026901000F3138008D
:1049700000F0A9FBA2E7036902000F32290038000A
:1049800000F088FB9AE7F12422E004205075002013
:10499000B070B068002101700D2202758269127832
:1049A000920609D58175C17D49007E22BA5A8918BF
:1049B000427D042A0AD106E001218175417D042946
:1049C000C17D02D14900103101E04900243101616B
:1049D0002000F2BD80B5FF21FF223C328154816B63
:1049E000AB4A4A60826889684A704168806B806817
:1049F00003F09AFA01BD0000EF0A0100FEFF00007B
:104A0000FFFFFFFFFFFFFFFF38B505000C0000218F
:104A10002878012839D0022841D0072825D010282D
:104A200006D1A06B0269002A07D00122C270A163DF
:104A3000280007F055F8002032BD8168897D0129E2
:104A40001FD0C178C022A25C914204D12200E9218A
:104A500000F044F8ECE7491CC1702100A06B00F0A5
:104A60006DF9200000F043F9E2E7A8780028DFD1D3
:104A7000A06B00690028DAD1200000F01BF90128A2
:104A8000EFD02200E121A06BE2E7A06B297A152983
:104A900002D122000021DBE72200EB21D8E7280029
:104AA00032BD10B504001821002001F0D2FEA06331
:104AB00022000021FFF797FE002803D1200000F01C
:104AC00016F910BDA06B002807D0806807F008F821
:104AD000A06B07F005F80020A06310BDF8B588B002
:104AE0000C00EB2C00D100240500160028780D28BE
:104AF0005FD801A2125C97440C2418B870B87C2EC1
:104B0000B8B83A46666632002100E868FFF708FA4E
:104B100078E032002100E868FFF77AFA49E03200D5
:104B2000E868FFF730F96DE032002100E86800F036
:104B300071F93EE032002100E86801F090FD38E0B4
:104B4000002C36D10296002001906120305C00904C
:104B50007620335AEE2200210020FFF75BFD28E08B
:104B60003200E868FEF721FB4CE032002100E868E3
:104B7000FFF769F846E02869002803D0EF680020B5
:104B8000E86001E0AF68A860002F12D00120387003
:104B9000E87D387203F05EFD0002000AF8607C7266
:104BA000C020305CE978401A387431683800326BC4
:104BB00090472869002818D028000AF0CDF8E86846
:104BC00006F08EFF0020E860A98A3000243001F052
:104BD000FEFD002809D16846A97D017205210170FA
:104BE000B1684170716803F09FF90024B06BA8426E
:104BF00000D1B463002D05D0A86806F071FF28002D
:104C000006F06EFF09B0F0BDF8B584B0070024309F
:104C10000AF02CF90600380024300AF082F804006B
:104C200001E0401A28613000461E002811D02500FE
:104C300028000AF083F804002869396D8142F0D316
:104C4000B86B8542EFD03A00F0212800FFF746FF0D
:104C5000E9E7786A002817D0380024300AF061F8B4
:104C600004002069386503F0F5FC2269002312185E
:104C70004B41BA64FB642E480290039768460CC00F
:104C8000684603F021FE00E0386505B0F0BD000085
:104C9000094A00001CB50400684609F08AFF009923
:104CA0000120A26B92789040401E08401421484396
:104CB00080B216BD816B4A78521C4A70816BBE303F
:104CC00042784B789A4201D2002070478A78007867
:104CD000824201D2521C8A70012070470178022959
:104CE00000D1704780B506F0FBFE002002BD38B54C
:104CF00084B00400FFF7CEFF050003F0ABFC002DED
:104D000003D12000FFF766FE10E00A4AA36B5A6049
:104D1000094A0292039400232A184B4168460CC0AA
:104D2000684603F0D1FDFF213C31605405B030BD31
:104D3000652B0000DD4C0000D549000000224270C8
:104D4000C122895C8170704730B50400A07A0228C6
:104D500001D0032837D1E27A012A01D0022A32D1C8
:104D60000D0060352289EB8A9A422CD16022895C41
:104D7000227B002A01D0002925D0002915D1022844
:104D800008D1AA8A002303CC083C8B421BD1824263
:104D900019D10AE0032808D1280008300CC803CC38
:104DA000083C8B420FD182420DD1287900280CD1CA
:104DB000607B082807DA002809D0A07B042802DAE3
:104DC000207E002803D1E82030BD00206073002041
:104DD00030BD38B505000C00072101F03AFDA06395
:104DE00022002900FFF7FFFC010003D12000FFF79C
:104DF0007EFF31BD2200280000F00CF8A06B0028D7
:104E000007D0806806F06CFEA06B06F069FE0020FB
:104E1000A06331BD38B5040015000C202070E1748A
:104E2000002910D128005430017B00290BD10849FA
:104E30000184818441845421695A18220A430280E2
:104E40002800FDF7BEFD296820006A6B904731BD40
:104E5000FFFF0000F8B58AB007000C0016001D0027
:104E60009C2040003818217B0170217B00290BD049
:104E7000617B4170217E81700822210010319820D1
:104E8000400038180AF01EF89820400038180990A1
:104E900008950796200019300690B86DF96D0490BA
:104EA0000591974803900320029003CC083C0090A2
:104EB00001912389A27A0121380073E0F0B58BB00B
:104EC00006000C0015001F009C2040003018A17A3D
:104ED0000170A17A00290BD0E17A4170217E8170A6
:104EE00008222100103198204000301809F0EAFF14
:104EF000607E002801D1208900E081480A90607E10
:104F00000AA9887030005830C38B982040003018B0
:104F10000990089707950AA80690B06DF16D049066
:104F2000059103930320029003CC0090019103228A
:104F30000221300000F0B4FC0BB0F0BDF8B58AB02F
:104F400006000C0015001F009C2040003018617BFB
:104F50000170617B00290BD0A17B4170217E8170A3
:104F600008222100103198204000301809F0AAFFD3
:104F700030005830C38B98204000301809900897B3
:104F8000079520000B300690B06DF16D04900591EF
:104F900003930320029003CC083C00900191A27A75
:104FA0000321300000F07CFC0BB0F0BDFEB58AB0F0
:104FB00006000C00350058353700CA37207806281F
:104FC0001DD0222807D1288C984A90422EDB03223C
:104FD000B06DF16D2CE0982040003718207E3872BB
:104FE000002809D0607E78722820205CB8720822E0
:104FF0002031380009F066FF20780628E3D10997B0
:105000000C9808900B98079000200690B06DF16DF9
:1050100004900591E88B0390032002902000083053
:1050200003C800900191238AA27C14E0022200218F
:1050300009970C9B08930B9B0793002306930490FE
:105040000591E88B039002922000103003C8009075
:1050500001916389227A0421300000F021FC0DB017
:10506000F0BD38B58AB07623C35A0400CA34099417
:105070000892079100210691846DC56D04940595F1
:10508000039303210291846EC56E0094019503225F
:10509000052114E038B58AB01C00194B0991089419
:1050A000079200210691846DC56D049405950393C4
:1050B000032102910025009301950222062100F0B0
:1050C000EFFB0BB030BD10B58AB000239C24640008
:1050D000035598235B00C318099308920791002198
:1050E00006910491059103910291BC4A00920191AD
:1050F00013460222072100F0D3FB0AB010BD0000C6
:10510000FFFF0000FCB58DB007000D000AAC0020C9
:1051100020723E0058369C20400038182978142907
:1051200036D1E97C017000290CD0297D4170202105
:10513000695C8170082229001831982040003818D5
:1051400009F0C0FEF08B6070000AA070707A607188
:10515000288AE080308CE070000A2071982040009E
:10516000381809900E9808900D980790601C0690CA
:10517000B86DF96D04900591F08B039003200290B7
:105180002800083003C800900191944B032246E0A8
:10519000E97A032910DA0E9A117853781B061B0C52
:1051A000194313468E4A0A40802149011143197060
:1051B000090A5970E97A2172697D017000290CD0C1
:1051C000A97D41702021695C817008222900183175
:1051D00098204000381809F075FE28896070000A90
:1051E000A070A87A60717D4BE380308CE070000A7B
:1051F000207198204000381809900E9808900D985A
:105200000790601C0690B86DF96D04900591F08BC5
:1052100003900320029000210093019102220821B3
:10522000380000F03DFB0FB0F0BD0000FEFF0000B5
:10523000F7B505001C00002727706770207861789B
:105240000906090C0843674901402170090A617089
:105250002800B9308078411C2A00B9329170A070C2
:10526000022229007631E01C09F02CFE7820285A11
:105270005D4988422078617812D00906090C0843FC
:105280008004800C8021090201432170090A6170A9
:10529000022229007831601D09F014FEE61D10E09D
:1052A0000906090C0843C021090201432170090ABB
:1052B0006170082229005831601D09F003FE2600A4
:1052C0000D362800B930407E00281FD02078617844
:1052D0000906090C0843082101432170090A61707D
:1052E000207861780906090C08433D490140802077
:1052F000400108432070000A60702B00CA3321006F
:10530000721AD2B2280000F03FFE36182800B930D9
:10531000407869460988354A0A400007000F104363
:10532000694608802800B930C07B0988D04A0A4005
:1053300000011043F0210901014368460180290062
:1053400081318A78038826481840120380235B0144
:105350001A400243684602806020285C022801D17E
:10536000980000E000206A461288C24B13401843A0
:105370006A4610800878694609884904490CC003C8
:105380000843694608800222300009F09BFDB7708F
:10539000F770361DB9202A5C301BC0B280187E28F9
:1053A00001D3E52718E0002A07D029008531300015
:1053B00009F088FDB920285C3618029A301B10705D
:1053C0002800B930407E002806D02B00CA332100C7
:1053D000280000F0FDFC07003800FEBDFFFF0000C4
:1053E000FFCF0000F8FF0000FEFF0000F0FF00000C
:1053F000F4B584B002000D001E0000270020C04359
:10540000014602AB03C337707770307871780906B4
:10541000090C0843C6490140012008433070000AC6
:105420007070317870780006000C0143C148084064
:105430002221695C49012023194001433170090A86
:105440007170317870780006000C0143BA4808404A
:10545000697C8902C0231B010B40034333701B0A84
:105460007370307871780906090C08438004800C49
:10547000297C890301433170090A71702220285C5C
:10548000400609D5307871780906090C08431021C7
:1054900001433170090A717000921046BC300178E6
:1054A0004A1C0270B170F41C687C022802D00328E8
:1054B00010D033E0022229001231200009F002FD51
:1054C000A41C022229001831200009F0FBFCA41CB6
:1054D00002220EE0022229001231200009F0F2FC23
:1054E000A41C082229001831200009F0EBFC083424
:1054F000082202A92800183009F0FAFC00280DD073
:105500002220285CC00709D5307871780906090C7B
:105510000843884901403170090A71708748297C25
:10552000002921D0697C00290ED0698A2A889142FD
:105530000AD1307871780906090C084340210143EB
:105540003170090A717018E0317872781206120C05
:10555000114308403070000A7070022229002000B8
:1055600009F0B0FCA41C08E0317872781206120C25
:10557000114308403070000A7070287C022802D065
:10558000032808D00EE0022229000831200009F08B
:1055900099FCA41C06E0082229000831200009F02B
:1055A00091FC08340098982149004018019023206C
:1055B000285C002831D0307871780906090C08433E
:1055C000082101433170090A717030787178090639
:1055D000090C0843B1490140802040010843307064
:1055E000000A707000989C21490040182321695CD2
:1055F00001702421695C41703021695C817008224E
:1056000029002831019809F05DFC019B3100621AE4
:10561000D2B2009800F0B8FC241820202A5C696BF4
:10562000200009F04FFC2020285C67280CD330783C
:1056300071780906090C084398490140802040010F
:1056400008433070000A7070049AA01B2021695C26
:10565000401810702320285C002805D0019B3100E1
:10566000009800F0B5FB0700380005B0F0BD000061
:105670000FFF0000FFBF0000F8B50D0017001E006F
:10568000002131707170317872781206120C11435A
:10569000274A0A40012111433170090A717032789A
:1056A00071780906090C0A4323491140AA8A920B12
:1056B00092020A433270120A7270317872781206BE
:1056C000120C11438904890C3170090A7170BC30C5
:1056D00001784A1C0270B170F41CA88A800B022861
:1056E00002D0032810D01FE0022229001031200030
:1056F00009F0E8FBA41C02222900200009F0E2FBCB
:10570000A41C3878001D0EE0022229001031200070
:1057100009F0D8FBA41C08222900200009F0D2FBC4
:10572000083438780A303870A01B38700020F2BD79
:10573000F8FF0000DFFF0000FFF30000BFFF0000E4
:10574000F8B506000D000127F468022221002800A8
:10575000143009F0B7FBA078A875E41C002068821B
:1057600000212A00083203C2A88A800A80071DD0BF
:10577000022221002800123009F0A4FBA41CA88AF0
:105780000005800F022802D0032808D00EE0022274
:1057900021002800083009F095FBA41C06E008222F
:1057A00021002800083009F08DFB083400202882F1
:1057B000002103C5083DA88A810B20D08009C007BD
:1057C00002D5688A288206E00222210028001030D3
:1057D00009F078FBA41CA88A800B022802D00328B9
:1057E00007D00CE002222100280009F06BFBA41C6A
:1057F00005E008222100280009F064FB0834F06865
:10580000201AE875717A091A2976CAB2772A06D25F
:10581000727AC9B28A4202D3C0B2824200D2002751
:105820003800F2BD10B5417C04290ADA017C042954
:1058300007DA2321415C002905D02421415C042999
:1058400001DB002003E07D2400F004F8201AC0B240
:1058500010BD000010B501000A7C4B7CA5A0C45C03
:10586000805C2018C01C80B2002A06D0002B04D017
:105870004A8A0B889A4200D1801E23228A5C002A21
:105880000AD0964B2424095D595C40189107890F72
:1058900002D002228A40801880B210BDFFCF0000E3
:1058A000F9B581B00D001700109EF41C0020694668
:1058B000087030707070307871780906090C0843F0
:1058C000202101433170090A71703078717809061E
:1058D000090C084382490140032008433070000A44
:1058E0007070317870780006000C01437D480840E4
:1058F000B902C02212010A4002433270120A7270C9
:10590000307871780906090C08438004800C0AA9D4
:105910000978890301433170090A71700198BC301C
:1059200001784A1C0270B170022F02D0032F0DD0F3
:1059300018E0022202A9200009F0C4FAA41C0222E5
:1059400008A9200009F0BEFAA41C0BE0022202A95B
:10595000200009F0B7FAA41C082208A9200009F0C9
:10596000B1FA08340AA8007800282AD068460089CD
:105970006946898D88420AD1307871780906090C08
:105980000843402101433170090A717005E0022289
:105990000BA9200009F096FAA41C0AA80078022896
:1059A00002D0032807D00CE002220CA9200009F045
:1059B00089FAA41C05E008220CA9200009F082FA4B
:1059C00008341198007A00281ED0307871780906C2
:1059D000090C0843082101433170090A71703078BD
:1059E00071780906090C08433F49014080204001B5
:1059F00008433070000A7070119B3100621AD2B2F5
:105A0000019800F0C1FA241828002070641C0E9D33
:105A1000401E0AD0401E0CD0401E06D0C01E0128D9
:105A200011D9801E1AD0401E47D1002D45D02878AC
:105A300041E0002D41D02878207068786070A87807
:105A4000A070E41C39E0307871780906090C08432D
:105A5000264901403170090A71702EE0002D2CD0CA
:105A600007222900200009F02DFAE41D022F24D17D
:105A700008A803C81E4A002399421ED190421CD197
:105A8000307871780906090C0843184901403170D3
:105A9000090A7170E87902280FDC307871780906FC
:105AA000090C084310490140802040010843307030
:105AB000000A7070E8792070641C0F9AA01B1070A7
:105AC0001198007A002806D0119B3100019800F04F
:105AD0007FF96946087068460078FEBDAC5B00003F
:105AE000F8FF0000FFF30000FFCF0000DFFF000021
:105AF000FFFF00000000040A38B505007246104898
:105B00000178280005F0BAFF040003D02A00002124
:105B100009F0FCF9200032BD80B5012802D9C01E71
:105B200005D00BE07246064801787F2003E07246FC
:105B300003480178402005F0A1FF02BD002002BD0E
:105B4000EF0A010080B501000222684609F0BAF9A7
:105B50009E48694609880905890F415C6A46128892
:105B6000920B805C0818694609888909C90702D523
:105B7000010600D0801EC0B202BD00001CB50C00A2
:105B800002220100684609F09DF968460088C008B5
:105B9000C00705D5207A002806D0607A042801DBEA
:105BA000002016BD01A1085C16BD000005060A0E06
:105BB0007CB505000E00002402222900684609F089
:105BC00081F9072069460988014003D0032917D1CC
:105BD000012415E0AA19931C03211B78034203D06A
:105BE000184041000918091DC8B210180078420079
:105BF0000E2313404008382202409818401C0C180D
:105C0000E0B276BDF8B584B004000F0015001E00A8
:105C100000202100EC31009101E00398401C009924
:105C2000097D884229D2002441010291039000E0BD
:105C3000641C0098006802994018417B8C42ECD2A9
:105C4000290001D1052200E009220A2161430191C6
:105C500039000068019BC01809F04AF90028E7D014
:105C600000980068029940180168019A8918497AD9
:105C7000A942DDD13060012000E0002005B0F0BD78
:105C80000422042303400A40934206DB032210400F
:105C90000A40904201DB0120704700207047FEB5AA
:105CA00001240025F83001900E00170068460370AB
:105CB00017E0002414E069460978427891420FD138
:105CC00081783000FFF7DCFF002809D101980068D7
:105CD00002994018C0780128EBD13000E9D10224A4
:105CE0006D1C0198C07A854211D2A80002900198DB
:105CF00000680299401802789742F1D1032FDAD058
:105D000081783000FFF7BCFF0028E9D1DEE72000F2
:105D1000FEBDF1B584B00D0000260027C721405C10
:105D2000002804D1287A002801D0DF204CE0049814
:105D3000E030C1690022D243914201D1DB2043E02F
:105D40006C46697A002905D0022922D01DD3032987
:105D500027D02EE000888B4988420DDA0222049970
:105D60007631684609F0AEF8022204997831A01C19
:105D700009F0A8F826711CE01BD108220499D8313B
:105D8000684609F09FF8267212E008220499E23171
:105D900009E004222900684609F094F8A87A2071E5
:105DA00007E008222900684609F08CF8A87A2072DA
:105DB000012703AB3A0069460498FFF723FF012847
:105DC00001D1002000E0F32005B0F0BDF45A00003E
:105DD000F0B591B01F003B7A002B00D1CCE00190D0
:105DE000C724005D002801D1DF20C6E00320032482
:105DF0001C400025230004D00223A3406C462370DE
:105E000001E06B461D70029212786B461B78D21827
:105E1000921C802A01D3E520AFE0019AE03204927F
:105E2000D2690023DB439A4201D1DB20A5E00026A2
